:100000000C9458000C9480000C9480000C94800098
:100010000C9480000C9480000C9480000C94800060
:100020000C9480000C9480000C9480000C94800050
:100030000C9480000C9480000C9480000C94800040
:100040000C94E3050C9480000C9468060C942D0627
:100050000C9480000C9480000C9480000C94800020
:100060000C94B8040C9480000000000025002800C7
:100070002B00040404040404040402020202020229
:10008000030303030303010204081020408001025C
:1000900004081020010204081020000000070002DC
:1000A0000100000304060000000000000000A2069A
:1000B00011241FBECFEFD8E0DEBFCDBF11E0A0E01E
:1000C000B1E0EEE3F5E102C005900D92A834B1076E
:1000D000D9F722E0A8E4B1E001C01D92AE3BB2071F
:1000E000E1F710E0C8E5D0E004C02197FE010E94CE
:1000F000970AC735D107C9F70E94F4060C9419086E
:100100000C940000E0918D02F0918E020190F0813C
:10011000E02D682F8DE892E0099490E0FC01E6560E
:10012000FF4F2491FC01EA57FF4F3491FC01EE5838
:10013000FF4FE491EE23B1F1222339F1233091F006
:1001400038F42130A9F0223001F584B58F7D12C03A
:10015000263091F02730A1F02430B9F4809180004E
:100160008F7D03C0809180008F77809380000DC0C9
:1001700084B58F7784BD09C08091B0008F7703C0AC
:100180008091B0008F7D8093B000F0E0EE0FFF1FF4
:10019000E859FF4FA591B4918FB7F894EC913E2B9D
:1001A0003C938FBF089585ED8093BC008091BC0087
:1001B00084FDFCCF1092DE0108950895E091E001E6
:1001C0008091DF01E81730F4F0E0EF51FE4F8081BD
:1001D00090E008958FEF9FEF08959091E001809156
:1001E000DF01981750F4E92FF0E0EF51FE4F208126
:1001F00030E09F5F9093E00102C02FEF3FEFC90115
:1002000008958091DF0190E02091E001821B910927
:100210000895CF92DF92EF92FF920F931F93CF93A7
:10022000DF937C018A0180910402882389F0EB012D
:100230006B01C40ED51ECC15DD05F1F06991D70117
:10024000ED91FC910190F081E02DC7010995F3CF6C
:10025000842F413288F49091DE01943069F4409308
:100260009301FB0121E731E0D9019A2F921B9817E6
:1002700018F491919D93F9CFC801DF91CF911F910F
:100280000F91FF90EF90DF90CF900895209104029E
:100290002223C9F020910102203240F021E030E019
:1002A000FC013383228380E090E008958091020274
:1002B000E82FF0E0EF5AFE4F60838F5F80930202D9
:1002C0008093010209C08091DE01843029F481E02D
:1002D000809393016093710181E090E008952091F3
:1002E000010290910302213208F046C08091DE01A4
:1002F0008111FCCF32E03093DE0131E03093DD013B
:100300003FEF3093DC011092DB012093DA01A1E58D
:10031000B1E048EB51E0FA013E2F341B321718F4DC
:100320003D913193F9CF1092D9012091D901990FC4
:10033000922B9093D9019091D801913041F4109271
:10034000D8019091D9019093BB0095EC01C095EE36
:100350009093BC009091DE019230E1F39091DC012A
:100360009F3F79F08091DC01803241F08091DC0187
:10037000803331F084E005C081E003C082E001C039
:1003800083E010920202109201021092040208957A
:100390001F93CF93DF93162FCBEBD2E0988121E010
:1003A0002093040290930302109202021092010221
:1003B000A981BA81ED91FC9111970190F081E02D16
:1003C000682FCD01099589819A81DC01ED91FC911D
:1003D0000190F081E02D612F099589819A81DF914B
:1003E000CF911F910C946F013FB7F89480914D010C
:1003F00090914E01A0914F01B091500126B5A89B5C
:1004000005C02F3F19F00196A11DB11D3FBFBA2FA6
:10041000A92F982F8827820F911DA11DB11DBC0106
:10042000CD0142E0660F771F881F991F4A95D1F7CB
:100430000895CF92DF92EF92FF92CF93DF936B01FB
:100440007C010E94F401EB01C114D104E104F10428
:1004500079F00E94F4016C1B7D0B683E7340A0F3A1
:1004600081E0C81AD108E108F108C851DC4FECCF8F
:10047000DF91CF91FF90EF90DF90CF900895DC0156
:10048000ED91FC910190F081E02D09940F931F9361
:10049000CF93DF938B01CBEBD2E0988121E02093C7
:1004A0000402909303021092020210920102A981A9
:1004B000BA81ED91FC91119724E0829FC001112433
:1004C000BC016A5F7F4F0190F081E02DCD0109955D
:1004D00060E070E089819A810E943F0260E070E0F4
:1004E00089819A810E943F02B80189819A810E9484
:1004F0003F02612F70E089819A810E943F028981C9
:100500009A81DF91CF911F910F910C946F010F93FE
:100510001F93CF93DF93FC01A685B7858D01005C07
:100520001F4FE8018881998101968F739927AD014A
:100530004E5B5F4FEA012881398182179307D1F31F
:10054000E80128813981A20FB31F6C93A685B78576
:10055000A05CBF4F11969C938E93A689B7892C916E
:1005600081E090E0078C02C0880F991F0A94E2F79F
:10057000822B8C9381E081A30488F589E02D808112
:100580008064808381E090E0DF91CF911F910F9193
:100590000895FC0181A1882329F0A489B5898C9153
:1005A00086FFFBCF11A20895FC01A485B585FD014E
:1005B000E05CFF4F20813181329680819181281744
:1005C000390779F080819181A80FB91F8C91208122
:1005D00031812F5F3F4F2F7333273183208390E08A
:1005E00008958FEF9FEF0895DC011C96ED91FC912B
:1005F0001D97DF01A05CBF4F2D913C911197129682
:100600008D919C9111972817390739F08D919C9104
:10061000E80FF91F808190E008958FEF9FEF089514
:10062000FC0124853585F901E05CFF4F80819181D3
:10063000329620813181821B930B8F739927089505
:100640008DE892E00C9410030895CF92DF92EF9220
:10065000FF920F931F93CF93DF936C01EB017B010C
:10066000E40EF51E00E010E0CE15DF0561F06991A3
:10067000D601ED91FC910190F081E02DC601099524
:10068000080F191FF1CFC801DF91CF911F910F9172
:10069000FF90EF90DF90CF900895009769F0FC01F4
:1006A00001900020E9F73197AF01481B590BBC01BD
:1006B0008DE892E00C94250380E090E008958F92FD
:1006C0009F92AF92BF92EF92FF920F931F93CF939F
:1006D000DF93CDB7DEB7A1970FB6F894DEBF0FBE9C
:1006E000CDBF162F042F19A2423008F40AE07E0174
:1006F00021E2E20EF11C802E912CA12CB12C612F55
:10070000A50194010E943B08029F1019112481E069
:10071000E81AF1081A3014F4105D01C0195CF701F1
:100720001083122F732FCA01232B242B252B39F76B
:10073000C7010E944D03A1960FB6F894DEBF0FBE0D
:10074000CDBFDF91CF911F910F91FF90EF90BF90A0
:10075000AF909F908F900895CF93DF9326E636E673
:1007600046E65FE30E94230A9B01AC0160E27CEB5A
:100770008EEB95E40E94D90820E030E040E85FE38A
:100780000E946C0820E030E040E05FE30E946D08CA
:100790000E947A090E944B09D62F8091BB0291E0FA
:1007A00090930402809303021092020210920102BD
:1007B0008091BC029091BD02DC01ED91FC91019011
:1007C000F081E02D60E009958091BC029091BD021E
:1007D0000E946F018091BB029091DE019111FCCFCC
:1007E00091E09093DE019093DD012FEF2093DC01E7
:1007F0001092DB011092DA019093D9019091D90106
:10080000880F892B8093D9018091D801813041F4E0
:100810001092D8018091D9018093BB0085EC01C072
:1008200085EE8093BC008091DE018130E1F3809100
:10083000DB01811103C08091DB0101C081E0A8EBE5
:10084000B1E021EE31E0F9019E2F921B981718F4C8
:100850009D919193F9CF1092E0018093DF018091F7
:10086000BC029091BD02DC01ED91FC910680F78104
:10087000E02D0995C82F8F76682F606180E00E9477
:10088000C8016D2F8EEF0E94C8016C2F80E00E947E
:10089000C80165E070E080E090E00E9419026C2FD2
:1008A000606A80E0DF91CF910C94C8018F929F9293
:1008B000AF92BF92CF92DF92EF92FF926C01092E1E
:1008C000000CEE08FF0822EC31E0DC010E94900AE7
:1008D00024EB30E040E050E00E941C0849015A013E
:1008E0008DE7880E911CA11CB11C80E291E00E9452
:1008F0004D03F7FE0CC08DE20E9482006627772729
:10090000CB016C197D098E099F094AE003C04AE0BA
:10091000C701B6010E945F0388E291E00E944D0387
:100920006401092C000CEE08FF08F7FE0CC08DE2F4
:100930000E94820066277727CB016C197D098E09FA
:100940009F094AE003C04AE0C701B6010E945F0365
:100950008DE00E9482008AE00E948200C401FF9024
:10096000EF90DF90CF90BF90AF909F908F900895C1
:100970001F920F920FB60F9211242F933F934F9314
:100980005F936F937F938F939F93AF93BF93EF93F7
:10099000FF938091B900887F803609F49CC068F588
:1009A000883209F45BC090F4803109F454C038F403
:1009B000882309F4F3C0883009F44DC0F3C08831AE
:1009C00009F44CC0803209F45DC0ECC0803409F4F5
:1009D00068C048F4803309F455C0883309F0E2C098
:1009E0008093DC01D5C0803509F44FC0883509F407
:1009F0005DC0883409F0D6C0D3C0883909F4C4C0BA
:100A0000A8F4883709F467C038F4883609F463C05D
:100A1000803709F460C0C6C0883809F4B5C0803991
:100A200009F45FC0803809F0BDC05BC0803B09F4A9
:100A300083C038F4803A09F466C0883A09F47CC06F
:100A4000B1C0803C09F4A4C0883C09F4A1C0883B33
:100A500009F487C0A7C08091D90110C09091DB0133
:100A60008091DA01981770F5E091DB0181E08E0F3B
:100A70008093DB01F0E0E854FE4F80818093BB005F
:100A800085EC83C08093DC018BC0E091DB0181E0C9
:100A90008E0F8093DB018091BB00F0E0E854FE4FA5
:100AA00080839091DB018091DA016BC0E091DB01E2
:100AB00081E08E0F8093DB018091BB00F0E0E85471
:100AC000FE4F80838091DD0181116AC081E08093B7
:100AD000D80184EA5EC083E08093DE011092B70102
:100AE000CFCF8091B701803208F04EC0E091B701BE
:100AF00081E08E0F8093B7018091BB00F0E0E95652
:100B0000FE4F8083BDCF8091B701803230F4E091F9
:100B1000B701F0E0E956FE4F10820E94D3006091C9
:100B2000B70170E0E0919501F091960187E991E0BD
:100B300009951092B7012CC084E08093DE011092D9
:100B4000940110929301E0919101F0919201099525
:100B500080919301811105C081E0809393011092EF
:100B60007101E091940181E08E0F80939401F0E097
:100B7000EF58FE4F80818093BB009091940180914B
:100B80009301981708F47CCF85E88093BC000AC0D5
:100B900085EC8093BC001092DE0104C01092DC0151
:100BA0000E94D300FF91EF91BF91AF919F918F91E0
:100BB0007F916F915F914F913F912F910F900FBE59
:100BC0000F901F9018951F920F920FB60F9211243D
:100BD0002F933F938F939F93AF93BF93809149013E
:100BE00090914A01A0914B01B0914C013091480184
:100BF00023E0230F2D3720F40196A11DB11D05C060
:100C000026E8230F0296A11DB11D20934801809371
:100C1000490190934A01A0934B01B0934C018091FC
:100C20004D0190914E01A0914F01B091500101965C
:100C3000A11DB11D80934D0190934E01A0934F01D2
:100C4000B0935001BF91AF919F918F913F912F91A0
:100C50000F900FBE0F901F9018951F920F920FB616
:100C60000F9211242F933F938F939F93EF93FF93B2
:100C700020914502309146028091470290914802AE
:100C80002817390731F48091C1008F7D8093C1000E
:100C900014C0E0914702F0914802EB5FFD4F2081C4
:100CA000809147029091480201968F739927909303
:100CB0004802809347022093C600FF91EF919F91D5
:100CC0008F913F912F910F900FBE0F901F9018950D
:100CD0001F920F920FB60F9211242F934F935F9391
:100CE0008F939F93EF93FF938091C00082FD1CC070
:100CF0002091C6008091890290918A0201968F739B
:100D0000992740918B0250918C028417950771F0BE
:100D1000E0918902F0918A02E75BFD4F2083909376
:100D20008A028093890202C08091C600FF91EF91F0
:100D30009F918F915F914F912F910F900FBE0F90C8
:100D40001F901895AFEAB2E013961C921E9212976C
:100D500048EE53E060E070E014964D935D936D9320
:100D60007C93179784E091E011969C938E93EDE825
:100D7000F2E013821282448355836683778384E191
:100D800091E09183808389E492E09587848785E070
:100D900092E09787868785EC90E0918B808B84EC3E
:100DA00090E0938B828B80EC90E0958B848B81EC30
:100DB00090E0978B868B82EC90E0918F808F86EC11
:100DC00090E0938F828F84E0848F83E0858F87E02B
:100DD000868F85E0878F81E080A3EBEBF2E080E4F3
:100DE0008083B283A1830895789484B5826084BDA2
:100DF00084B5816084BD85B5826085BD85B581601F
:100E000085BD80916E00816080936E00109281009C
:100E10008091810082608093810080918100816057
:100E20008093810080918000816080938000809118
:100E3000B10084608093B1008091B00081608093A4
:100E4000B00080917A00846080937A0080917A006B
:100E5000826080937A0080917A00816080937A002A
:100E600080917A00806880937A001092C100E091AE
:100E7000A102F091A20281E090E09C010090AD02FD
:100E800002C0220F331F0A94E2F72083E0919D02F3
:100E9000F0919E021082E0919F02F091A0022FEC4F
:100EA00020831092AE02E091A302F091A40240814F
:100EB0009C010090A90202C0220F331F0A94E2F79E
:100EC000242B2083E091A302F091A40240819C0195
:100ED0000090AA0202C0220F331F0A94E2F7242BCB
:100EE0002083E091A302F091A40240819C01009034
:100EF000AB0202C0220F331F0A94E2F7242B208397
:100F0000E091A302F091A40220810090AC0202C003
:100F1000880F991F0A94E2F780958223808381E3EA
:100F200091E00E944D038DE00E9482008AE00E94C1
:100F300082001092E0011092DF01109202021092E2
:100F400001021092DE0181E08093DD011092D80150
:100F500082E10E948D0083E10E948D008091B900A2
:100F60008E7F8093B9008091B9008D7F8093B90006
:100F700088E48093B80085E48093BC0060E880E05A
:100F80000E94C8016AE070E080E090E00E941902CF
:100F900060E070E08AE794E40E94AC0360E070E0F7
:100FA00080E792E40E94AC03C0E0D0E0CE010E9452
:100FB0005604BC0183E00E944602CE010E94560402
:100FC000BC0181E00E944602CE010E945604BC0191
:100FD00080E00E944602CE010E945604BC0182E0DD
:100FE0000E9446022196C43BD10501F7C4EBD0E034
:100FF000CE010E945604BC0183E00E944602CE014D
:101000000E945604BC0181E00E944602CE010E946B
:101010005604BC0180E00E944602CE010E945604A4
:10102000BC0182E00E944602219711F70E94200332
:10103000BBCFF8940C949D0A052E97FB1EF40094E8
:101040000E94330857FD07D00E943B0807FC03D0DD
:101050004EF40C94330850954095309521953F4FB0
:101060004F4F5F4F089590958095709561957F4F94
:101070008F4F9F4F0895A1E21A2EAA1BBB1BFD01A3
:101080000DC0AA1FBB1FEE1FFF1FA217B307E40767
:10109000F50720F0A21BB30BE40BF50B661F771FBF
:1010A000881F991F1A9469F760957095809590959F
:1010B0009B01AC01BD01CF010895A29FB001B39F78
:1010C000C001A39F700D811D1124911DB29F700D51
:1010D000811D1124911D08955058BB27AA270E94F5
:1010E00084080C94D1090E94C30938F00E94CA09EF
:1010F00020F039F49F3F19F426F40C94C0090EF443
:10110000E095E7FB0C949109E92F0E94E20958F35E
:10111000BA17620773078407950720F079F4A6F5DC
:101120000C941C0A0EF4E0950B2EBA2FA02D0B0187
:10113000B90190010C01CA01A0011124FF27591B1C
:1011400099F0593F50F4503E68F11A16F040A22F22
:10115000232F342F4427585FF3CF46953795279593
:10116000A795F0405395C9F77EF41F16BA0B620B92
:10117000730B840BBAF09150A1F0FF0FBB1F661FD9
:10118000771F881FC2F70EC0BA0F621F731F841F1C
:1011900048F4879577956795B795F7959E3F08F042
:1011A000B0CF9395880F08F09927EE0F9795879504
:1011B00008950E94ED080C94D1090E94CA0958F0C4
:1011C0000E94C30940F029F45F3F29F00C94910973
:1011D00051110C941D0A0C94C0090E94E20968F395
:1011E0009923B1F3552391F3951B550BBB27AA27E0
:1011F00062177307840738F09F5F5F4F220F331F1A
:10120000441FAA1FA9F335D00E2E3AF0E0E832D0E1
:1012100091505040E695001CCAF72BD0FE2F29D0E4
:10122000660F771F881FBB1F261737074807AB07B6
:10123000B0E809F0BB0B802DBF01FF2793585F4F2B
:101240003AF09E3F510578F00C9491090C941D0AD8
:101250005F3FE4F3983ED4F3869577956795B7950D
:10126000F7959F5FC9F7880F911D9695879597F918
:101270000895E1E0660F771F881FBB1F6217730791
:101280008407BA0720F0621B730B840BBA0BEE1FA6
:1012900088F7E09508950E94EA0988F09F5798F032
:1012A000B92F9927B751B0F0E1F0660F771F881F6B
:1012B000991F1AF0BA95C9F714C0B13091F00E9485
:1012C0001C0AB1E008950C941C0A672F782F882718
:1012D000B85F39F0B93FCCF3869577956795B395AC
:1012E000D9F73EF490958095709561957F4F8F4F1B
:1012F0009F4F08950E94040A90F09F3748F491117F
:1013000016F00C941D0A60E070E080E89FEB0895F1
:1013100026F41B16611D711D811D0C9497090C94F8
:10132000B20997F99F6780E870E060E0089588232C
:1013300071F4772321F09850872B762F07C066230E
:1013400011F499270DC09051862B70E060E02AF0CF
:101350009A95660F771F881FDAF7880F96958795FD
:1013600097F908959F3F31F0915020F48795779534
:101370006795B795880F911D9695879597F908956C
:101380009FEF80EC089500240A941616170618069D
:101390000906089500240A94121613061406050679
:1013A0000895092E0394000C11F4882352F0BB0F0A
:1013B00040F4BF2B11F460FF04C06F5F7F4F8F4F6D
:1013C0009F4F089557FD9058440F551F59F05F3FA8
:1013D00071F04795880F97FB991F61F09F3F79F057
:1013E00087950895121613061406551FF2CF4695D9
:1013F000F1DF08C0161617061806991FF1CF86955B
:1014000071056105089408950E94EA09A0F0BEE7FD
:10141000B91788F4BB279F3860F41616B11D672FE3
:10142000782F8827985FF7CF869577956795B11DB8
:1014300093959639C8F30895E894BB2766277727D4
:10144000CB0197F908950E94360A0C94D1090E94A5
:10145000C30938F00E94CA0920F0952311F00C94BA
:1014600091090C94C00911240C941D0A0E94E209F0
:1014700070F3959FC1F3950F50E0551F629FF001E7
:10148000729FBB27F00DB11D639FAA27F00DB11D00
:10149000AA1F649F6627B00DA11D661F829F222789
:1014A000B00DA11D621F739FB00DA11D621F839F10
:1014B000A00D611D221F749F3327A00D611D231FE6
:1014C000849F600D211D822F762F6A2F11249F5734
:1014D00050409AF0F1F088234AF0EE0FFF1FBB1F37
:1014E000661F771F881F91505040A9F79E3F5105F6
:1014F00080F00C9491090C941D0A5F3FE4F3983E30
:10150000D4F3869577956795B795F795E7959F5F9F
:10151000C1F7FE2B880F911D9695879597F9089531
:101520000E945D08B7FF0895821B930B0895EE0F8C
:0E153000FF1F0590F491E02D0994F894FFCF71
:10153E0000000000460109010101ED00DE00DD00A2
:10154E0000000000870225031003D402F402C90232
:10155E00416E676C653A20002070756C73653A2099
:10156E00003136206368616E6E656C20536572764D
:08157E006F20746573742100F5
:00000001FF
